{
  "contractName": "StateChannels",
  "abi": [
    {
      "constant": true,
      "inputs": [
        {
          "name": "",
          "type": "address"
        },
        {
          "name": "",
          "type": "uint256"
        }
      ],
      "name": "channelsAtAddress",
      "outputs": [
        {
          "name": "",
          "type": "uint256"
        }
      ],
      "payable": false,
      "stateMutability": "view",
      "type": "function"
    },
    {
      "constant": true,
      "inputs": [],
      "name": "hackyStateOutput3",
      "outputs": [
        {
          "name": "",
          "type": "address"
        }
      ],
      "payable": false,
      "stateMutability": "view",
      "type": "function"
    },
    {
      "constant": true,
      "inputs": [
        {
          "name": "",
          "type": "uint256"
        }
      ],
      "name": "channels",
      "outputs": [
        {
          "name": "u1Address",
          "type": "address"
        },
        {
          "name": "u2Address",
          "type": "address"
        },
        {
          "name": "u1TokenName",
          "type": "string"
        },
        {
          "name": "u2TokenName",
          "type": "string"
        },
        {
          "name": "u1InitialTokenBal",
          "type": "uint256"
        },
        {
          "name": "u2InitialTokenBal",
          "type": "uint256"
        },
        {
          "name": "terminatingNonce",
          "type": "uint256"
        },
        {
          "name": "terminatingBlockNum",
          "type": "uint256"
        }
      ],
      "payable": false,
      "stateMutability": "view",
      "type": "function"
    },
    {
      "constant": false,
      "inputs": [
        {
          "name": "v1",
          "type": "uint8"
        },
        {
          "name": "r1",
          "type": "bytes32"
        },
        {
          "name": "s1",
          "type": "bytes32"
        },
        {
          "name": "CID",
          "type": "uint256"
        },
        {
          "name": "u1Address",
          "type": "address"
        },
        {
          "name": "u1TokenName",
          "type": "string"
        },
        {
          "name": "u2TokenName",
          "type": "string"
        },
        {
          "name": "u1InitialTokenBal",
          "type": "uint256"
        },
        {
          "name": "u2InitialTokenBal",
          "type": "uint256"
        }
      ],
      "name": "CreateChannel",
      "outputs": [],
      "payable": false,
      "stateMutability": "nonpayable",
      "type": "function"
    },
    {
      "constant": false,
      "inputs": [
        {
          "name": "v",
          "type": "uint8"
        },
        {
          "name": "r",
          "type": "bytes32"
        },
        {
          "name": "s",
          "type": "bytes32"
        },
        {
          "name": "CID",
          "type": "uint256"
        },
        {
          "name": "proposedTerminatingBlockNumber",
          "type": "uint256"
        },
        {
          "name": "u1BalRetained",
          "type": "uint256"
        },
        {
          "name": "u2BalRetained",
          "type": "uint256"
        },
        {
          "name": "nonce",
          "type": "uint256"
        }
      ],
      "name": "InitChannelTermination",
      "outputs": [],
      "payable": false,
      "stateMutability": "nonpayable",
      "type": "function"
    },
    {
      "constant": true,
      "inputs": [
        {
          "name": "CID",
          "type": "uint256"
        }
      ],
      "name": "TerminateChannel",
      "outputs": [],
      "payable": false,
      "stateMutability": "view",
      "type": "function"
    },
    {
      "constant": true,
      "inputs": [
        {
          "name": "signedMessage",
          "type": "bytes32"
        },
        {
          "name": "v",
          "type": "uint8"
        },
        {
          "name": "r",
          "type": "bytes32"
        },
        {
          "name": "s",
          "type": "bytes32"
        }
      ],
      "name": "getOriginAddress",
      "outputs": [
        {
          "name": "",
          "type": "address"
        }
      ],
      "payable": false,
      "stateMutability": "pure",
      "type": "function"
    }
  ],
  "bytecode": "0x608060405234801561001057600080fd5b50611186806100206000396000f3fe608060405260043610610083576000357c0100000000000000000000000000000000000000000000000000000000900463ffffffff1680632a8feacf1461008857806336827832146100f75780638529be4a1461014e5780638b3d98e41461030d578063bff4930e146103a9578063d683a81b146103e4578063e5949b5d14610469575b600080fd5b34801561009457600080fd5b506100e1600480360360408110156100ab57600080fd5b81019080803573ffffffffffffffffffffffffffffffffffffffff1690602001909291908035906020019092919050505061060b565b6040518082815260200191505060405180910390f35b34801561010357600080fd5b5061010c61063b565b604051808273ffffffffffffffffffffffffffffffffffffffff1673ffffffffffffffffffffffffffffffffffffffff16815260200191505060405180910390f35b34801561015a57600080fd5b5061030b600480360361012081101561017257600080fd5b81019080803560ff169060200190929190803590602001909291908035906020019092919080359060200190929190803573ffffffffffffffffffffffffffffffffffffffff169060200190929190803590602001906401000000008111156101da57600080fd5b8201836020820111156101ec57600080fd5b8035906020019184600183028401116401000000008311171561020e57600080fd5b91908080601f016020809104026020016040519081016040528093929190818152602001838380828437600081840152601f19601f8201169050808301925050505050505091929192908035906020019064010000000081111561027157600080fd5b82018360208201111561028357600080fd5b803590602001918460018302840111640100000000831117156102a557600080fd5b91908080601f016020809104026020016040519081016040528093929190818152602001838380828437600081840152601f19601f8201169050808301925050505050505091929192908035906020019092919080359060200190929190505050610660565b005b34801561031957600080fd5b506103676004803603608081101561033057600080fd5b8101908080359060200190929190803560ff1690602001909291908035906020019092919080359060200190929190505050610a48565b604051808273ffffffffffffffffffffffffffffffffffffffff1673ffffffffffffffffffffffffffffffffffffffff16815260200191505060405180910390f35b3480156103b557600080fd5b506103e2600480360360208110156103cc57600080fd5b8101908080359060200190929190505050610b77565b005b3480156103f057600080fd5b50610467600480360361010081101561040857600080fd5b81019080803560ff16906020019092919080359060200190929190803590602001909291908035906020019092919080359060200190929190803590602001909291908035906020019092919080359060200190929190505050610b9e565b005b34801561047557600080fd5b506104a26004803603602081101561048c57600080fd5b8101908080359060200190929190505050610efd565b604051808973ffffffffffffffffffffffffffffffffffffffff1673ffffffffffffffffffffffffffffffffffffffff1681526020018873ffffffffffffffffffffffffffffffffffffffff1673ffffffffffffffffffffffffffffffffffffffff1681526020018060200180602001878152602001868152602001858152602001848152602001838103835289818151815260200191508051906020019080838360005b83811015610562578082015181840152602081019050610547565b50505050905090810190601f16801561058f5780820380516001836020036101000a031916815260200191505b50838103825288818151815260200191508051906020019080838360005b838110156105c85780820151818401526020810190506105ad565b50505050905090810190601f1680156105f55780820380516001836020036101000a031916815260200191505b509a505050505050505050505060405180910390f35b60026020528160005260406000208181548110151561062657fe5b90600052602060002001600091509150505481565b6000809054906101000a900473ffffffffffffffffffffffffffffffffffffffff1681565b600073ffffffffffffffffffffffffffffffffffffffff166001600088815260200190815260200160002060000160009054906101000a900473ffffffffffffffffffffffffffffffffffffffff1673ffffffffffffffffffffffffffffffffffffffff161415156106d157600080fd5b6000339050600087878388888888604051602001808881526020018773ffffffffffffffffffffffffffffffffffffffff1673ffffffffffffffffffffffffffffffffffffffff166c010000000000000000000000000281526014018673ffffffffffffffffffffffffffffffffffffffff1673ffffffffffffffffffffffffffffffffffffffff166c0100000000000000000000000002815260140185805190602001908083835b60208310151561079f578051825260208201915060208101905060208303925061077a565b6001836020036101000a03801982511681845116808217855250505050505090500184805190602001908083835b6020831015156107f257805182526020820191506020810190506020830392506107cd565b6001836020036101000a038019825116818451168082178552505050505050905001838152602001828152602001975050505050505050604051602081830303815290604052805190602001209050600061084f828d8d8d610a48565b9050806000806101000a81548173ffffffffffffffffffffffffffffffffffffffff021916908373ffffffffffffffffffffffffffffffffffffffff1602179055508773ffffffffffffffffffffffffffffffffffffffff168173ffffffffffffffffffffffffffffffffffffffff161415156108cb57600080fd5b610100604051908101604052808973ffffffffffffffffffffffffffffffffffffffff1681526020018473ffffffffffffffffffffffffffffffffffffffff168152602001888152602001878152602001868152602001858152602001600081526020016000815250600160008b815260200190815260200160002060008201518160000160006101000a81548173ffffffffffffffffffffffffffffffffffffffff021916908373ffffffffffffffffffffffffffffffffffffffff16021790555060208201518160010160006101000a81548173ffffffffffffffffffffffffffffffffffffffff021916908373ffffffffffffffffffffffffffffffffffffffff16021790555060408201518160020190805190602001906109f19291906110b5565b506060820151816003019080519060200190610a0e9291906110b5565b506080820151816004015560a0820151816005015560c0820151816006015560e08201518160070155905050505050505050505050505050565b600060606040805190810160405280601c81526020017f19457468657265756d205369676e6564204d6573736167653a0a3332000000008152509050600081876040516020018083805190602001908083835b602083101515610ac05780518252602082019150602081019050602083039250610a9b565b6001836020036101000a0380198251168184511680821785525050505050509050018281526020019250505060405160208183030381529060405280519060200120905060018187878760405160008152602001604052604051808581526020018460ff1660ff1681526020018381526020018281526020019450505050506020604051602081039080840390855afa158015610b61573d6000803e3d6000fd5b5050506020604051035192505050949350505050565b600160008281526020019081526020016000206007015443111515610b9b57600080fd5b50565b6001600086815260200190815260200160002060000160009054906101000a900473ffffffffffffffffffffffffffffffffffffffff1673ffffffffffffffffffffffffffffffffffffffff163373ffffffffffffffffffffffffffffffffffffffff161480610c6f57506001600086815260200190815260200160002060010160009054906101000a900473ffffffffffffffffffffffffffffffffffffffff1673ffffffffffffffffffffffffffffffffffffffff163373ffffffffffffffffffffffffffffffffffffffff16145b1515610c7a57600080fd5b436116808503111515610c8c57600080fd5b600160008681526020019081526020016000206006015481111515610cb057600080fd5b600085828585604051602001808581526020018481526020018381526020018281526020019450505050506040516020818303038152906040528051906020012090506000610d01828b8b8b610a48565b90508073ffffffffffffffffffffffffffffffffffffffff166001600089815260200190815260200160002060000160009054906101000a900473ffffffffffffffffffffffffffffffffffffffff1673ffffffffffffffffffffffffffffffffffffffff161480610dd457503373ffffffffffffffffffffffffffffffffffffffff166001600089815260200190815260200160002060000160009054906101000a900473ffffffffffffffffffffffffffffffffffffffff1673ffffffffffffffffffffffffffffffffffffffff16145b1515610ddf57600080fd5b8073ffffffffffffffffffffffffffffffffffffffff166001600089815260200190815260200160002060010160009054906101000a900473ffffffffffffffffffffffffffffffffffffffff1673ffffffffffffffffffffffffffffffffffffffff161480610eb057503373ffffffffffffffffffffffffffffffffffffffff166001600089815260200190815260200160002060010160009054906101000a900473ffffffffffffffffffffffffffffffffffffffff1673ffffffffffffffffffffffffffffffffffffffff16145b1515610ebb57600080fd5b82600160008981526020019081526020016000206006018190555085600160008981526020019081526020016000206007018190555050505050505050505050565b60016020528060005260406000206000915090508060000160009054906101000a900473ffffffffffffffffffffffffffffffffffffffff16908060010160009054906101000a900473ffffffffffffffffffffffffffffffffffffffff1690806002018054600181600116156101000203166002900480601f016020809104026020016040519081016040528092919081815260200182805460018160011615610100020316600290048015610ff55780601f10610fca57610100808354040283529160200191610ff5565b820191906000526020600020905b815481529060010190602001808311610fd857829003601f168201915b505050505090806003018054600181600116156101000203166002900480601f0160208091040260200160405190810160405280929190818152602001828054600181600116156101000203166002900480156110935780601f1061106857610100808354040283529160200191611093565b820191906000526020600020905b81548152906001019060200180831161107657829003601f168201915b5050505050908060040154908060050154908060060154908060070154905088565b828054600181600116156101000203166002900490600052602060002090601f016020900481019282601f106110f657805160ff1916838001178555611124565b82800160010185558215611124579182015b82811115611123578251825591602001919060010190611108565b5b5090506111319190611135565b5090565b61115791905b8082111561115357600081600090555060010161113b565b5090565b9056fea165627a7a72305820bf77ccab366710d9f9e3b35994e024cd7281b41d4c648a2e75d948a695a838f70029",
  "source": "pragma solidity ^0.5.0;\n\ncontract StateChannels {\n\n    struct channelDetails{\n    \taddress u1Address;\n    \taddress u2Address;\n    \tstring u1TokenName;\n    \tstring u2TokenName;\n    \tuint u1InitialTokenBal;\n    \tuint u2InitialTokenBal;\n    \tuint terminatingNonce;\n    \tuint terminatingBlockNum;\n    }\n    ////////REMOVE THE VARIABLE BELOW\n    address public hackyStateOutput3 ;\n\t\n\tmapping (uint => channelDetails) public channels;\n\tmapping (address => uint[]) public channelsAtAddress;\n\n    function CreateChannel(uint8 v1, bytes32 r1, bytes32 s1, uint CID, address u1Address, string memory u1TokenName, string memory u2TokenName, uint u1InitialTokenBal, uint u2InitialTokenBal) public {\n        //require CID is not already in the smart contract\n        require(channels[CID].u1Address == address(0));\n        address u2Address = msg.sender;\n        //require that sig1 correlates to all the data above\n        bytes32 ChHash = keccak256(abi.encodePacked(CID,u1Address,u2Address,u1TokenName,u2TokenName,u1InitialTokenBal,u2InitialTokenBal));\n        address calculatedProposingAddress = getOriginAddress(ChHash, v1,r1,s1);\n\n\n        //DELETE THIS TOO\n        hackyStateOutput3 = calculatedProposingAddress;\n\n\n        require(calculatedProposingAddress == u1Address);\n        //put the given data into the contract\n        channels[CID]=channelDetails(u1Address,u2Address,u1TokenName,u2TokenName,u1InitialTokenBal,u2InitialTokenBal,0,0);\n    }\n    \n    function InitChannelTermination(uint8 v, bytes32 r, bytes32 s, uint CID, uint proposedTerminatingBlockNumber, uint u1BalRetained, uint u2BalRetained, uint nonce) public{\n        require(msg.sender == channels[CID].u1Address || msg.sender == channels[CID].u2Address);\n        require((proposedTerminatingBlockNumber - 5760) > block.number); \n        require(nonce > channels[CID].terminatingNonce);\n        // check sig verifies balances and nonce to the other address\n        bytes32 TxHash = keccak256(abi.encodePacked(CID,nonce,u1BalRetained,u2BalRetained));\n    //uint 8 v =...;\n    //bytes32 r =...;\n    //bytes32 s =...;\n        address calculatedProposingAddress = getOriginAddress(TxHash, v,r,s);\n        require(channels[CID].u1Address == calculatedProposingAddress || channels[CID].u1Address == msg.sender);\n        require(channels[CID].u2Address == calculatedProposingAddress || channels[CID].u2Address == msg.sender);\n\n        channels[CID].terminatingNonce = nonce;\n        channels[CID].terminatingBlockNum = proposedTerminatingBlockNumber;\n    }\n    \n    function TerminateChannel(uint CID) view public{\n        require(block.number > channels[CID].terminatingBlockNum);\n        //do stuff not considered in out project\n        //uint u1Owes = u2InitialTokenBal - u2BalRetained;\n        //uint u2Owes = u1InitialTokenBal - u1BalRetained;\n        \t//transfer u1Owes tokens from u1 to u2 (to be implemented later)\n    }\n    \n    function getOriginAddress(bytes32 signedMessage, uint8 v, bytes32 r, bytes32 s) public pure returns(address) {\n        bytes memory prefix = \"\\x19Ethereum Signed Message:\\n32\";\n        bytes32 prefixedHash = keccak256(abi.encodePacked(prefix, signedMessage));\n        return ecrecover(prefixedHash, v, r, s);\n    }\n\n    \n}",
  "sourcePath": "/home/mark/development/SimpleEthStateChannel/SimpleEthStateChannel/Solidity/contracts/StateChannels.sol",
  "compiler": {
    "name": "solc",
    "version": "0.5.0+commit.1d4f565a.Emscripten.clang"
  },
  "schemaVersion": "3.0.1",
  "updatedAt": "2019-02-22T02:16:17.433Z",
  "devdoc": {
    "methods": {}
  },
  "userdoc": {
    "methods": {}
  }
}