{
    "contractName": "StateChannels",
    "abi": [
        {
            "constant": true,
            "inputs": [
                {
                    "name": "",
                    "type": "address"
                },
                {
                    "name": "",
                    "type": "uint256"
                }
            ],
            "name": "channelsAtAddress",
            "outputs": [
                {
                    "name": "",
                    "type": "uint256"
                }
            ],
            "payable": false,
            "stateMutability": "view",
            "type": "function"
        },
        {
            "constant": true,
            "inputs": [],
            "name": "hackyStateOutput3",
            "outputs": [
                {
                    "name": "",
                    "type": "address"
                }
            ],
            "payable": false,
            "stateMutability": "view",
            "type": "function"
        },
        {
            "constant": true,
            "inputs": [
                {
                    "name": "",
                    "type": "uint256"
                }
            ],
            "name": "channels",
            "outputs": [
                {
                    "name": "u1Address",
                    "type": "address"
                },
                {
                    "name": "u2Address",
                    "type": "address"
                },
                {
                    "name": "u1TokenName",
                    "type": "string"
                },
                {
                    "name": "u2TokenName",
                    "type": "string"
                },
                {
                    "name": "u1InitialTokenBal",
                    "type": "uint256"
                },
                {
                    "name": "u2InitialTokenBal",
                    "type": "uint256"
                },
                {
                    "name": "terminatingNonce",
                    "type": "uint256"
                },
                {
                    "name": "terminatingBlockNum",
                    "type": "uint256"
                }
            ],
            "payable": false,
            "stateMutability": "view",
            "type": "function"
        },
        {
            "constant": false,
            "inputs": [
                {
                    "name": "v1",
                    "type": "uint8"
                },
                {
                    "name": "r1",
                    "type": "bytes32"
                },
                {
                    "name": "s1",
                    "type": "bytes32"
                },
                {
                    "name": "CID",
                    "type": "uint256"
                },
                {
                    "name": "u1Address",
                    "type": "address"
                },
                {
                    "name": "u1TokenName",
                    "type": "string"
                },
                {
                    "name": "u2TokenName",
                    "type": "string"
                },
                {
                    "name": "u1InitialTokenBal",
                    "type": "uint256"
                },
                {
                    "name": "u2InitialTokenBal",
                    "type": "uint256"
                }
            ],
            "name": "CreateChannel",
            "outputs": [],
            "payable": false,
            "stateMutability": "nonpayable",
            "type": "function"
        },
        {
            "constant": true,
            "inputs": [
                {
                    "name": "addr",
                    "type": "address"
                }
            ],
            "name": "GetChannelsAtAddress",
            "outputs": [
                {
                    "name": "",
                    "type": "uint256[]"
                }
            ],
            "payable": false,
            "stateMutability": "view",
            "type": "function"
        },
        {
            "constant": false,
            "inputs": [
                {
                    "name": "v",
                    "type": "uint8"
                },
                {
                    "name": "r",
                    "type": "bytes32"
                },
                {
                    "name": "s",
                    "type": "bytes32"
                },
                {
                    "name": "CID",
                    "type": "uint256"
                },
                {
                    "name": "proposedTerminatingBlockNumber",
                    "type": "uint256"
                },
                {
                    "name": "u1BalRetained",
                    "type": "uint256"
                },
                {
                    "name": "u2BalRetained",
                    "type": "uint256"
                },
                {
                    "name": "nonce",
                    "type": "uint256"
                }
            ],
            "name": "InitChannelTermination",
            "outputs": [],
            "payable": false,
            "stateMutability": "nonpayable",
            "type": "function"
        },
        {
            "constant": true,
            "inputs": [
                {
                    "name": "CID",
                    "type": "uint256"
                }
            ],
            "name": "TerminateChannel",
            "outputs": [],
            "payable": false,
            "stateMutability": "view",
            "type": "function"
        },
        {
            "constant": true,
            "inputs": [
                {
                    "name": "signedMessage",
                    "type": "bytes32"
                },
                {
                    "name": "v",
                    "type": "uint8"
                },
                {
                    "name": "r",
                    "type": "bytes32"
                },
                {
                    "name": "s",
                    "type": "bytes32"
                }
            ],
            "name": "getOriginAddress",
            "outputs": [
                {
                    "name": "",
                    "type": "address"
                }
            ],
            "payable": false,
            "stateMutability": "pure",
            "type": "function"
        }
    ],
    "bytecode": "0x608060405234801561001057600080fd5b506113a0806100206000396000f3fe60806040526004361061008e576000357c0100000000000000000000000000000000000000000000000000000000900463ffffffff16806316a5ef88146100935780632a8feacf1461013957806336827832146101a85780638529be4a146101ff5780638b3d98e4146103be578063bff4930e1461045a578063d683a81b14610495578063e5949b5d1461051a575b600080fd5b34801561009f57600080fd5b506100e2600480360360208110156100b657600080fd5b81019080803573ffffffffffffffffffffffffffffffffffffffff1690602001909291905050506106bc565b6040518080602001828103825283818151815260200191508051906020019060200280838360005b8381101561012557808201518184015260208101905061010a565b505050509050019250505060405180910390f35b34801561014557600080fd5b506101926004803603604081101561015c57600080fd5b81019080803573ffffffffffffffffffffffffffffffffffffffff16906020019092919080359060200190929190505050610753565b6040518082815260200191505060405180910390f35b3480156101b457600080fd5b506101bd610783565b604051808273ffffffffffffffffffffffffffffffffffffffff1673ffffffffffffffffffffffffffffffffffffffff16815260200191505060405180910390f35b34801561020b57600080fd5b506103bc600480360361012081101561022357600080fd5b81019080803560ff169060200190929190803590602001909291908035906020019092919080359060200190929190803573ffffffffffffffffffffffffffffffffffffffff1690602001909291908035906020019064010000000081111561028b57600080fd5b82018360208201111561029d57600080fd5b803590602001918460018302840111640100000000831117156102bf57600080fd5b91908080601f016020809104026020016040519081016040528093929190818152602001838380828437600081840152601f19601f8201169050808301925050505050505091929192908035906020019064010000000081111561032257600080fd5b82018360208201111561033457600080fd5b8035906020019184600183028401116401000000008311171561035657600080fd5b91908080601f016020809104026020016040519081016040528093929190818152602001838380828437600081840152601f19601f82011690508083019250505050505050919291929080359060200190929190803590602001909291905050506107a8565b005b3480156103ca57600080fd5b50610418600480360360808110156103e157600080fd5b8101908080359060200190929190803560ff1690602001909291908035906020019092919080359060200190929190505050610c62565b604051808273ffffffffffffffffffffffffffffffffffffffff1673ffffffffffffffffffffffffffffffffffffffff16815260200191505060405180910390f35b34801561046657600080fd5b506104936004803603602081101561047d57600080fd5b8101908080359060200190929190505050610d91565b005b3480156104a157600080fd5b5061051860048036036101008110156104b957600080fd5b81019080803560ff16906020019092919080359060200190929190803590602001909291908035906020019092919080359060200190929190803590602001909291908035906020019092919080359060200190929190505050610db8565b005b34801561052657600080fd5b506105536004803603602081101561053d57600080fd5b8101908080359060200190929190505050611117565b604051808973ffffffffffffffffffffffffffffffffffffffff1673ffffffffffffffffffffffffffffffffffffffff1681526020018873ffffffffffffffffffffffffffffffffffffffff1673ffffffffffffffffffffffffffffffffffffffff1681526020018060200180602001878152602001868152602001858152602001848152602001838103835289818151815260200191508051906020019080838360005b838110156106135780820151818401526020810190506105f8565b50505050905090810190601f1680156106405780820380516001836020036101000a031916815260200191505b50838103825288818151815260200191508051906020019080838360005b8381101561067957808201518184015260208101905061065e565b50505050905090810190601f1680156106a65780820380516001836020036101000a031916815260200191505b509a505050505050505050505060405180910390f35b6060600260008373ffffffffffffffffffffffffffffffffffffffff1673ffffffffffffffffffffffffffffffffffffffff16815260200190815260200160002080548060200260200160405190810160405280929190818152602001828054801561074757602002820191906000526020600020905b815481526020019060010190808311610733575b50505050509050919050565b60026020528160005260406000208181548110151561076e57fe5b90600052602060002001600091509150505481565b6000809054906101000a900473ffffffffffffffffffffffffffffffffffffffff1681565b600073ffffffffffffffffffffffffffffffffffffffff166001600088815260200190815260200160002060000160009054906101000a900473ffffffffffffffffffffffffffffffffffffffff1673ffffffffffffffffffffffffffffffffffffffff1614151561081957600080fd5b6000339050600087878388888888604051602001808881526020018773ffffffffffffffffffffffffffffffffffffffff1673ffffffffffffffffffffffffffffffffffffffff166c010000000000000000000000000281526014018673ffffffffffffffffffffffffffffffffffffffff1673ffffffffffffffffffffffffffffffffffffffff166c0100000000000000000000000002815260140185805190602001908083835b6020831015156108e757805182526020820191506020810190506020830392506108c2565b6001836020036101000a03801982511681845116808217855250505050505090500184805190602001908083835b60208310151561093a5780518252602082019150602081019050602083039250610915565b6001836020036101000a0380198251168184511680821785525050505050509050018381526020018281526020019750505050505050506040516020818303038152906040528051906020012090506000610997828d8d8d610c62565b90508773ffffffffffffffffffffffffffffffffffffffff168173ffffffffffffffffffffffffffffffffffffffff161415156109d357600080fd5b610100604051908101604052808973ffffffffffffffffffffffffffffffffffffffff1681526020018473ffffffffffffffffffffffffffffffffffffffff168152602001888152602001878152602001868152602001858152602001600081526020016000815250600160008b815260200190815260200160002060008201518160000160006101000a81548173ffffffffffffffffffffffffffffffffffffffff021916908373ffffffffffffffffffffffffffffffffffffffff16021790555060208201518160010160006101000a81548173ffffffffffffffffffffffffffffffffffffffff021916908373ffffffffffffffffffffffffffffffffffffffff1602179055506040820151816002019080519060200190610af99291906112cf565b506060820151816003019080519060200190610b169291906112cf565b506080820151816004015560a0820151816005015560c0820151816006015560e08201518160070155905050600260008973ffffffffffffffffffffffffffffffffffffffff1673ffffffffffffffffffffffffffffffffffffffff168152602001908152602001600020899080600181540180825580915050906001820390600052602060002001600090919290919091505550600260008473ffffffffffffffffffffffffffffffffffffffff1673ffffffffffffffffffffffffffffffffffffffff168152602001908152602001600020899080600181540180825580915050906001820390600052602060002001600090919290919091505550806000806101000a81548173ffffffffffffffffffffffffffffffffffffffff021916908373ffffffffffffffffffffffffffffffffffffffff160217905550505050505050505050505050565b600060606040805190810160405280601c81526020017f19457468657265756d205369676e6564204d6573736167653a0a3332000000008152509050600081876040516020018083805190602001908083835b602083101515610cda5780518252602082019150602081019050602083039250610cb5565b6001836020036101000a0380198251168184511680821785525050505050509050018281526020019250505060405160208183030381529060405280519060200120905060018187878760405160008152602001604052604051808581526020018460ff1660ff1681526020018381526020018281526020019450505050506020604051602081039080840390855afa158015610d7b573d6000803e3d6000fd5b5050506020604051035192505050949350505050565b600160008281526020019081526020016000206007015443111515610db557600080fd5b50565b6001600086815260200190815260200160002060000160009054906101000a900473ffffffffffffffffffffffffffffffffffffffff1673ffffffffffffffffffffffffffffffffffffffff163373ffffffffffffffffffffffffffffffffffffffff161480610e8957506001600086815260200190815260200160002060010160009054906101000a900473ffffffffffffffffffffffffffffffffffffffff1673ffffffffffffffffffffffffffffffffffffffff163373ffffffffffffffffffffffffffffffffffffffff16145b1515610e9457600080fd5b436116808503111515610ea657600080fd5b600160008681526020019081526020016000206006015481111515610eca57600080fd5b600085828585604051602001808581526020018481526020018381526020018281526020019450505050506040516020818303038152906040528051906020012090506000610f1b828b8b8b610c62565b90508073ffffffffffffffffffffffffffffffffffffffff166001600089815260200190815260200160002060000160009054906101000a900473ffffffffffffffffffffffffffffffffffffffff1673ffffffffffffffffffffffffffffffffffffffff161480610fee57503373ffffffffffffffffffffffffffffffffffffffff166001600089815260200190815260200160002060000160009054906101000a900473ffffffffffffffffffffffffffffffffffffffff1673ffffffffffffffffffffffffffffffffffffffff16145b1515610ff957600080fd5b8073ffffffffffffffffffffffffffffffffffffffff166001600089815260200190815260200160002060010160009054906101000a900473ffffffffffffffffffffffffffffffffffffffff1673ffffffffffffffffffffffffffffffffffffffff1614806110ca57503373ffffffffffffffffffffffffffffffffffffffff166001600089815260200190815260200160002060010160009054906101000a900473ffffffffffffffffffffffffffffffffffffffff1673ffffffffffffffffffffffffffffffffffffffff16145b15156110d557600080fd5b82600160008981526020019081526020016000206006018190555085600160008981526020019081526020016000206007018190555050505050505050505050565b60016020528060005260406000206000915090508060000160009054906101000a900473ffffffffffffffffffffffffffffffffffffffff16908060010160009054906101000a900473ffffffffffffffffffffffffffffffffffffffff1690806002018054600181600116156101000203166002900480601f01602080910402602001604051908101604052809291908181526020018280546001816001161561010002031660029004801561120f5780601f106111e45761010080835404028352916020019161120f565b820191906000526020600020905b8154815290600101906020018083116111f257829003601f168201915b505050505090806003018054600181600116156101000203166002900480601f0160208091040260200160405190810160405280929190818152602001828054600181600116156101000203166002900480156112ad5780601f10611282576101008083540402835291602001916112ad565b820191906000526020600020905b81548152906001019060200180831161129057829003601f168201915b5050505050908060040154908060050154908060060154908060070154905088565b828054600181600116156101000203166002900490600052602060002090601f016020900481019282601f1061131057805160ff191683800117855561133e565b8280016001018555821561133e579182015b8281111561133d578251825591602001919060010190611322565b5b50905061134b919061134f565b5090565b61137191905b8082111561136d576000816000905550600101611355565b5090565b9056fea165627a7a723058205259aaa2225f473d42af923041615fe48f5aa0655e9a444518e4886ca530efc80029",
    "source": "pragma solidity ^0.5.0;\n\ncontract StateChannels {\n\n    struct channelDetails{\n    \taddress u1Address;\n    \taddress u2Address;\n    \tstring u1TokenName;\n    \tstring u2TokenName;\n    \tuint u1InitialTokenBal;\n    \tuint u2InitialTokenBal;\n    \tuint terminatingNonce;\n    \tuint terminatingBlockNum;\n    }\n    ////////REMOVE THE VARIABLE BELOW\n    address public hackyStateOutput3 ;\n\t\n\tmapping (uint => channelDetails) public channels;\n\tmapping (address => uint[]) public channelsAtAddress;\n\n    function CreateChannel(uint8 v1, bytes32 r1, bytes32 s1, uint CID, address u1Address, string memory u1TokenName, string memory u2TokenName, uint u1InitialTokenBal, uint u2InitialTokenBal) public {\n        //require CID is not already in the smart contract\n        require(channels[CID].u1Address == address(0));\n        address u2Address = msg.sender;\n        \n        //require that sig1 correlates to all the data above\n        bytes32 ChHash = keccak256(abi.encodePacked(CID,u1Address,u2Address,u1TokenName,u2TokenName,u1InitialTokenBal,u2InitialTokenBal));\n        address calculatedProposingAddress = getOriginAddress(ChHash, v1,r1,s1);\n        require(calculatedProposingAddress == u1Address);\n        \n        //put the given data into the contract\n        channels[CID]=channelDetails(u1Address,u2Address,u1TokenName,u2TokenName,u1InitialTokenBal,u2InitialTokenBal,0,0);\n    \n        //put the channel# into the index channelsAtAddress\n        channelsAtAddress[u1Address].push(CID);\n        channelsAtAddress[u2Address].push(CID);\n\n\n        //DELETE THIS HACKY DEBUGGIN LINE\n        hackyStateOutput3 = calculatedProposingAddress;\n\n\n    }\n\n    //the channelsAtAddress created won't return an array\n    function GetChannelsAtAddress(address addr) public view returns(uint[] memory){\n        return channelsAtAddress[addr];\n    }\n    \n    function InitChannelTermination(uint8 v, bytes32 r, bytes32 s, uint CID, uint proposedTerminatingBlockNumber, uint u1BalRetained, uint u2BalRetained, uint nonce) public{\n        require(msg.sender == channels[CID].u1Address || msg.sender == channels[CID].u2Address);\n        \n        //require the requested terminating block is at least 24 hours from now\n        require((proposedTerminatingBlockNumber - 5760) > block.number); \n        \n        require(nonce > channels[CID].terminatingNonce);\n\n        // check sig verifies balances and nonce to the counterparty's address\n        bytes32 TxHash = keccak256(abi.encodePacked(CID,nonce,u1BalRetained,u2BalRetained));\n        address calculatedProposingAddress = getOriginAddress(TxHash, v,r,s);\n        require(channels[CID].u1Address == calculatedProposingAddress || channels[CID].u1Address == msg.sender);\n        require(channels[CID].u2Address == calculatedProposingAddress || channels[CID].u2Address == msg.sender);\n\n        //set when the contract can be terminated\n        channels[CID].terminatingNonce = nonce;\n        channels[CID].terminatingBlockNum = proposedTerminatingBlockNumber;\n    }\n    \n    function TerminateChannel(uint CID) view public{\n        require(block.number > channels[CID].terminatingBlockNum);\n        //do stuff not considered in out project\n        //uint u1Owes = u2InitialTokenBal - u2BalRetained;\n        //uint u2Owes = u1InitialTokenBal - u1BalRetained;\n        \t//transfer u1Owes tokens from u1 to u2 (to be implemented later)\n    }\n    \n    function getOriginAddress(bytes32 signedMessage, uint8 v, bytes32 r, bytes32 s) public pure returns(address) {\n        bytes memory prefix = \"\\x19Ethereum Signed Message:\\n32\";\n        bytes32 prefixedHash = keccak256(abi.encodePacked(prefix, signedMessage));\n        return ecrecover(prefixedHash, v, r, s);\n    }\n\n    \n}",
    "sourcePath": "/home/mark/development/SimpleEthStateChannel/SimpleEthStateChannel/Solidity/contracts/StateChannels.sol",
    "compiler": {
        "name": "solc",
        "version": "0.5.0+commit.1d4f565a.Emscripten.clang"
    },
    "schemaVersion": "3.0.1",
    "updatedAt": "2019-02-23T19:57:10.042Z",
    "devdoc": {
        "methods": {}
    },
    "userdoc": {
        "methods": {}
    }
}